{
  "_format": "hh-sol-artifact-1",
  "contractName": "AITradingAgent",
  "sourceName": "contracts/AITradingAgent.sol",
  "abi": [
    {
      "inputs": [],
      "stateMutability": "nonpayable",
      "type": "constructor"
    },
    {
      "inputs": [
        {
          "internalType": "address",
          "name": "owner",
          "type": "address"
        }
      ],
      "name": "OwnableInvalidOwner",
      "type": "error"
    },
    {
      "inputs": [
        {
          "internalType": "address",
          "name": "account",
          "type": "address"
        }
      ],
      "name": "OwnableUnauthorizedAccount",
      "type": "error"
    },
    {
      "inputs": [],
      "name": "ReentrancyGuardReentrantCall",
      "type": "error"
    },
    {
      "anonymous": false,
      "inputs": [
        {
          "indexed": false,
          "internalType": "uint256",
          "name": "orderId",
          "type": "uint256"
        },
        {
          "indexed": true,
          "internalType": "address",
          "name": "user",
          "type": "address"
        }
      ],
      "name": "OrderExecuted",
      "type": "event"
    },
    {
      "anonymous": false,
      "inputs": [
        {
          "indexed": false,
          "internalType": "uint256",
          "name": "orderId",
          "type": "uint256"
        },
        {
          "indexed": true,
          "internalType": "address",
          "name": "user",
          "type": "address"
        },
        {
          "indexed": false,
          "internalType": "address",
          "name": "token",
          "type": "address"
        },
        {
          "indexed": false,
          "internalType": "uint256",
          "name": "price",
          "type": "uint256"
        },
        {
          "indexed": false,
          "internalType": "uint256",
          "name": "amount",
          "type": "uint256"
        },
        {
          "indexed": false,
          "internalType": "bool",
          "name": "isBuyOrder",
          "type": "bool"
        }
      ],
      "name": "OrderPlaced",
      "type": "event"
    },
    {
      "anonymous": false,
      "inputs": [
        {
          "indexed": true,
          "internalType": "address",
          "name": "previousOwner",
          "type": "address"
        },
        {
          "indexed": true,
          "internalType": "address",
          "name": "newOwner",
          "type": "address"
        }
      ],
      "name": "OwnershipTransferred",
      "type": "event"
    },
    {
      "inputs": [
        {
          "internalType": "uint256",
          "name": "_orderId",
          "type": "uint256"
        }
      ],
      "name": "executeOrder",
      "outputs": [],
      "stateMutability": "nonpayable",
      "type": "function"
    },
    {
      "inputs": [],
      "name": "getOrders",
      "outputs": [
        {
          "components": [
            {
              "internalType": "address",
              "name": "user",
              "type": "address"
            },
            {
              "internalType": "address",
              "name": "token",
              "type": "address"
            },
            {
              "internalType": "uint256",
              "name": "price",
              "type": "uint256"
            },
            {
              "internalType": "uint256",
              "name": "amount",
              "type": "uint256"
            },
            {
              "internalType": "bool",
              "name": "isBuyOrder",
              "type": "bool"
            },
            {
              "internalType": "bool",
              "name": "executed",
              "type": "bool"
            }
          ],
          "internalType": "struct AITradingAgent.LimitOrder[]",
          "name": "",
          "type": "tuple[]"
        }
      ],
      "stateMutability": "view",
      "type": "function"
    },
    {
      "inputs": [
        {
          "internalType": "uint256",
          "name": "",
          "type": "uint256"
        }
      ],
      "name": "orderOwners",
      "outputs": [
        {
          "internalType": "address",
          "name": "",
          "type": "address"
        }
      ],
      "stateMutability": "view",
      "type": "function"
    },
    {
      "inputs": [
        {
          "internalType": "uint256",
          "name": "",
          "type": "uint256"
        }
      ],
      "name": "orders",
      "outputs": [
        {
          "internalType": "address",
          "name": "user",
          "type": "address"
        },
        {
          "internalType": "address",
          "name": "token",
          "type": "address"
        },
        {
          "internalType": "uint256",
          "name": "price",
          "type": "uint256"
        },
        {
          "internalType": "uint256",
          "name": "amount",
          "type": "uint256"
        },
        {
          "internalType": "bool",
          "name": "isBuyOrder",
          "type": "bool"
        },
        {
          "internalType": "bool",
          "name": "executed",
          "type": "bool"
        }
      ],
      "stateMutability": "view",
      "type": "function"
    },
    {
      "inputs": [],
      "name": "owner",
      "outputs": [
        {
          "internalType": "address",
          "name": "",
          "type": "address"
        }
      ],
      "stateMutability": "view",
      "type": "function"
    },
    {
      "inputs": [
        {
          "internalType": "address",
          "name": "_token",
          "type": "address"
        },
        {
          "internalType": "uint256",
          "name": "_price",
          "type": "uint256"
        },
        {
          "internalType": "uint256",
          "name": "_amount",
          "type": "uint256"
        },
        {
          "internalType": "bool",
          "name": "_isBuyOrder",
          "type": "bool"
        }
      ],
      "name": "placeOrder",
      "outputs": [],
      "stateMutability": "payable",
      "type": "function"
    },
    {
      "inputs": [],
      "name": "renounceOwnership",
      "outputs": [],
      "stateMutability": "nonpayable",
      "type": "function"
    },
    {
      "inputs": [
        {
          "internalType": "address",
          "name": "newOwner",
          "type": "address"
        }
      ],
      "name": "transferOwnership",
      "outputs": [],
      "stateMutability": "nonpayable",
      "type": "function"
    }
  ],
  "bytecode": "0x608060405234801561001057600080fd5b50336001600081905550600073ffffffffffffffffffffffffffffffffffffffff168173ffffffffffffffffffffffffffffffffffffffff160361008c5760006040517f1e4fbdf700000000000000000000000000000000000000000000000000000000815260040161008391906101a8565b60405180910390fd5b61009b816100a160201b60201c565b506101c3565b6000600160009054906101000a900473ffffffffffffffffffffffffffffffffffffffff16905081600160006101000a81548173ffffffffffffffffffffffffffffffffffffffff021916908373ffffffffffffffffffffffffffffffffffffffff1602179055508173ffffffffffffffffffffffffffffffffffffffff168173ffffffffffffffffffffffffffffffffffffffff167f8be0079c531659141344cd1fd0a4f28419497f9722a3daafe3b4186f6b6457e060405160405180910390a35050565b600073ffffffffffffffffffffffffffffffffffffffff82169050919050565b600061019282610167565b9050919050565b6101a281610187565b82525050565b60006020820190506101bd6000830184610199565b92915050565b61143a806101d26000396000f3fe60806040526004361061007b5760003560e01c806394f611341161004e57806394f611341461012a578063a85c38ef14610153578063ac15e2f414610195578063f2fde38b146101b15761007b565b806320c53f94146100805780632e2dc43e146100bd578063715018a6146100e85780638da5cb5b146100ff575b600080fd5b34801561008c57600080fd5b506100a760048036038101906100a29190610cba565b6101da565b6040516100b49190610d28565b60405180910390f35b3480156100c957600080fd5b506100d261020d565b6040516100df9190610ea6565b60405180910390f35b3480156100f457600080fd5b506100fd610362565b005b34801561010b57600080fd5b50610114610376565b6040516101219190610d28565b60405180910390f35b34801561013657600080fd5b50610151600480360381019061014c9190610cba565b6103a0565b005b34801561015f57600080fd5b5061017a60048036038101906101759190610cba565b61060a565b60405161018c96959493929190610ee6565b60405180910390f35b6101af60048036038101906101aa9190610f9f565b6106b0565b005b3480156101bd57600080fd5b506101d860048036038101906101d39190611006565b610a54565b005b60036020528060005260406000206000915054906101000a900473ffffffffffffffffffffffffffffffffffffffff1681565b60606002805480602002602001604051908101604052809291908181526020016000905b8282101561035957838290600052602060002090600502016040518060c00160405290816000820160009054906101000a900473ffffffffffffffffffffffffffffffffffffffff1673ffffffffffffffffffffffffffffffffffffffff1673ffffffffffffffffffffffffffffffffffffffff1681526020016001820160009054906101000a900473ffffffffffffffffffffffffffffffffffffffff1673ffffffffffffffffffffffffffffffffffffffff1673ffffffffffffffffffffffffffffffffffffffff16815260200160028201548152602001600382015481526020016004820160009054906101000a900460ff161515151581526020016004820160019054906101000a900460ff16151515158152505081526020019060010190610231565b50505050905090565b61036a610ada565b6103746000610b61565b565b6000600160009054906101000a900473ffffffffffffffffffffffffffffffffffffffff16905090565b6103a8610ada565b6000600282815481106103be576103bd611033565b5b906000526020600020906005020190508060040160019054906101000a900460ff1615610420576040517f08c379a0000000000000000000000000000000000000000000000000000000008152600401610417906110bf565b60405180910390fd5b8060040160009054906101000a900460ff16156104ab578060000160009054906101000a900473ffffffffffffffffffffffffffffffffffffffff1673ffffffffffffffffffffffffffffffffffffffff166108fc82600301549081150290604051600060405180830381858888f193505050501580156104a5573d6000803e3d6000fd5b50610577565b8060010160009054906101000a900473ffffffffffffffffffffffffffffffffffffffff1673ffffffffffffffffffffffffffffffffffffffff1663a9059cbb8260000160009054906101000a900473ffffffffffffffffffffffffffffffffffffffff1683600301546040518363ffffffff1660e01b81526004016105329291906110df565b6020604051808303816000875af1158015610551573d6000803e3d6000fd5b505050506040513d601f19601f82011682018060405250810190610575919061111d565b505b60018160040160016101000a81548160ff0219169083151502179055508060000160009054906101000a900473ffffffffffffffffffffffffffffffffffffffff1673ffffffffffffffffffffffffffffffffffffffff167f7dcea57e3cdcea187cf2d57047e2b9260a274caa69cb5fe9525d123ef6c12a17836040516105fe919061114a565b60405180910390a25050565b6002818154811061061a57600080fd5b90600052602060002090600502016000915090508060000160009054906101000a900473ffffffffffffffffffffffffffffffffffffffff16908060010160009054906101000a900473ffffffffffffffffffffffffffffffffffffffff16908060020154908060030154908060040160009054906101000a900460ff16908060040160019054906101000a900460ff16905086565b6106b8610c27565b600082116106fb576040517f08c379a00000000000000000000000000000000000000000000000000000000081526004016106f2906111b1565b60405180910390fd5b801561076657670de0b6b3a764000082846107169190611200565b6107209190611271565b3414610761576040517f08c379a0000000000000000000000000000000000000000000000000000000008152600401610758906112ee565b60405180910390fd5b610826565b8373ffffffffffffffffffffffffffffffffffffffff166323b872dd3330856040518463ffffffff1660e01b81526004016107a39392919061130e565b6020604051808303816000875af11580156107c2573d6000803e3d6000fd5b505050506040513d601f19601f820116820180604052508101906107e6919061111d565b610825576040517f08c379a000000000000000000000000000000000000000000000000000000000815260040161081c90611391565b60405180910390fd5b5b6000600280549050905060026040518060c001604052803373ffffffffffffffffffffffffffffffffffffffff1681526020018773ffffffffffffffffffffffffffffffffffffffff168152602001868152602001858152602001841515815260200160001515815250908060018154018082558091505060019003906000526020600020906005020160009091909190915060008201518160000160006101000a81548173ffffffffffffffffffffffffffffffffffffffff021916908373ffffffffffffffffffffffffffffffffffffffff16021790555060208201518160010160006101000a81548173ffffffffffffffffffffffffffffffffffffffff021916908373ffffffffffffffffffffffffffffffffffffffff160217905550604082015181600201556060820151816003015560808201518160040160006101000a81548160ff02191690831515021790555060a08201518160040160016101000a81548160ff0219169083151502179055505050336003600083815260200190815260200160002060006101000a81548173ffffffffffffffffffffffffffffffffffffffff021916908373ffffffffffffffffffffffffffffffffffffffff1602179055503373ffffffffffffffffffffffffffffffffffffffff167fdf00665fb563e8ffd866275d1ba51611dfe4761ca5d4b561fd2db7c436a0b1bb8287878787604051610a3d9594939291906113b1565b60405180910390a250610a4e610c6d565b50505050565b610a5c610ada565b600073ffffffffffffffffffffffffffffffffffffffff168173ffffffffffffffffffffffffffffffffffffffff1603610ace5760006040517f1e4fbdf7000000000000000000000000000000000000000000000000000000008152600401610ac59190610d28565b60405180910390fd5b610ad781610b61565b50565b610ae2610c77565b73ffffffffffffffffffffffffffffffffffffffff16610b00610376565b73ffffffffffffffffffffffffffffffffffffffff1614610b5f57610b23610c77565b6040517f118cdaa7000000000000000000000000000000000000000000000000000000008152600401610b569190610d28565b60405180910390fd5b565b6000600160009054906101000a900473ffffffffffffffffffffffffffffffffffffffff16905081600160006101000a81548173ffffffffffffffffffffffffffffffffffffffff021916908373ffffffffffffffffffffffffffffffffffffffff1602179055508173ffffffffffffffffffffffffffffffffffffffff168173ffffffffffffffffffffffffffffffffffffffff167f8be0079c531659141344cd1fd0a4f28419497f9722a3daafe3b4186f6b6457e060405160405180910390a35050565b600260005403610c63576040517f3ee5aeb500000000000000000000000000000000000000000000000000000000815260040160405180910390fd5b6002600081905550565b6001600081905550565b600033905090565b600080fd5b6000819050919050565b610c9781610c84565b8114610ca257600080fd5b50565b600081359050610cb481610c8e565b92915050565b600060208284031215610cd057610ccf610c7f565b5b6000610cde84828501610ca5565b91505092915050565b600073ffffffffffffffffffffffffffffffffffffffff82169050919050565b6000610d1282610ce7565b9050919050565b610d2281610d07565b82525050565b6000602082019050610d3d6000830184610d19565b92915050565b600081519050919050565b600082825260208201905092915050565b6000819050602082019050919050565b610d7881610d07565b82525050565b610d8781610c84565b82525050565b60008115159050919050565b610da281610d8d565b82525050565b60c082016000820151610dbe6000850182610d6f565b506020820151610dd16020850182610d6f565b506040820151610de46040850182610d7e565b506060820151610df76060850182610d7e565b506080820151610e0a6080850182610d99565b5060a0820151610e1d60a0850182610d99565b50505050565b6000610e2f8383610da8565b60c08301905092915050565b6000602082019050919050565b6000610e5382610d43565b610e5d8185610d4e565b9350610e6883610d5f565b8060005b83811015610e99578151610e808882610e23565b9750610e8b83610e3b565b925050600181019050610e6c565b5085935050505092915050565b60006020820190508181036000830152610ec08184610e48565b905092915050565b610ed181610c84565b82525050565b610ee081610d8d565b82525050565b600060c082019050610efb6000830189610d19565b610f086020830188610d19565b610f156040830187610ec8565b610f226060830186610ec8565b610f2f6080830185610ed7565b610f3c60a0830184610ed7565b979650505050505050565b610f5081610d07565b8114610f5b57600080fd5b50565b600081359050610f6d81610f47565b92915050565b610f7c81610d8d565b8114610f8757600080fd5b50565b600081359050610f9981610f73565b92915050565b60008060008060808587031215610fb957610fb8610c7f565b5b6000610fc787828801610f5e565b9450506020610fd887828801610ca5565b9350506040610fe987828801610ca5565b9250506060610ffa87828801610f8a565b91505092959194509250565b60006020828403121561101c5761101b610c7f565b5b600061102a84828501610f5e565b91505092915050565b7f4e487b7100000000000000000000000000000000000000000000000000000000600052603260045260246000fd5b600082825260208201905092915050565b7f4f7264657220616c726561647920657865637574656400000000000000000000600082015250565b60006110a9601683611062565b91506110b482611073565b602082019050919050565b600060208201905081810360008301526110d88161109c565b9050919050565b60006040820190506110f46000830185610d19565b6111016020830184610ec8565b9392505050565b60008151905061111781610f73565b92915050565b60006020828403121561113357611132610c7f565b5b600061114184828501611108565b91505092915050565b600060208201905061115f6000830184610ec8565b92915050565b7f416d6f756e74206d7573742062652067726561746572207468616e207a65726f600082015250565b600061119b602083611062565b91506111a682611165565b602082019050919050565b600060208201905081810360008301526111ca8161118e565b9050919050565b7f4e487b7100000000000000000000000000000000000000000000000000000000600052601160045260246000fd5b600061120b82610c84565b915061121683610c84565b925082820261122481610c84565b9150828204841483151761123b5761123a6111d1565b5b5092915050565b7f4e487b7100000000000000000000000000000000000000000000000000000000600052601260045260246000fd5b600061127c82610c84565b915061128783610c84565b92508261129757611296611242565b5b828204905092915050565b7f496e636f7272656374204554482073656e7420666f7220627579206f72646572600082015250565b60006112d8602083611062565b91506112e3826112a2565b602082019050919050565b60006020820190508181036000830152611307816112cb565b9050919050565b60006060820190506113236000830186610d19565b6113306020830185610d19565b61133d6040830184610ec8565b949350505050565b7f546f6b656e207472616e73666572206661696c65640000000000000000000000600082015250565b600061137b601583611062565b915061138682611345565b602082019050919050565b600060208201905081810360008301526113aa8161136e565b9050919050565b600060a0820190506113c66000830188610ec8565b6113d36020830187610d19565b6113e06040830186610ec8565b6113ed6060830185610ec8565b6113fa6080830184610ed7565b969550505050505056fea26469706673582212202fdda4a5617244247e38053814c555184c25649b077f2a85f06d9d63c5f13e6564736f6c634300081c0033",
  "linkReferences": {},
  "deployedLinkReferences": {}
}